:100000000C9462000C948A000C948A000C948A0070
:100010000C948A000C948A000C948A000C948A0038
:100020000C948A000C948A000C948A000C948A0028
:100030000C948A000C948A000C948A000C948A0018
:100040000C9482030C948A000C94F2030C94CC035D
:100050000C948A000C948A000C948A000C948A00F8
:100060000C948A000C948A000000000025002800EF
:100070002B0000000000240027002A0000000000E0
:1000800023002600290004040404040404040202DA
:100090000202020203030303030301020408102007
:1000A0004080010204081020010204081020000012
:1000B0000008000201000003040700000000000027
:1000C0000000240411241FBECFEFD8E0DEBFCDBF57
:1000D00011E0A0E0B1E0E0E1F3E102C005900D9293
:1000E000AE37B107D9F722E0AEE7B1E001C01D920B
:1000F000A632B207E1F710E0C2E6D0E004C02197D3
:10010000FE010E943F07C136D107C9F70E9457047C
:100110000C9486090C940000833081F028F481301F
:1001200099F08230A1F008958730A9F08830B9F0B5
:100130008430D1F4809180008F7D03C08091800055
:100140008F7780938000089584B58F7702C084B53F
:100150008F7D84BD08958091B0008F7703C080911A
:10016000B0008F7D8093B0000895CF93DF93282F48
:1001700030E0F901E255FF4F8491F901E656FF4F57
:10018000D491F901EA57FF4FC491CC2391F081112A
:100190000E948C00EC2FF0E0EE0FFF1FE458FF4FA1
:1001A000A591B491EC91ED2381E090E021F480E001
:1001B00002C080E090E0DF91CF9108953FB7F894BE
:1001C0008091830190918401A0918501B091860175
:1001D00026B5A89B05C02F3F19F00196A11DB11DA2
:1001E0003FBFBA2FA92F982F8827820F911DA11DDD
:1001F000B11DBC01CD0142E0660F771F881F991F1A
:100200004A95D1F708958F929F92AF92BF92CF9265
:10021000DF92EF92FF926B017C010E94DE004B01A6
:100220005C01C114D104E104F104F1F00E94DE008C
:10023000DC01CB0188199909AA09BB09883E9340C2
:10024000A105B10570F321E0C21AD108E108F10857
:1002500088EE880E83E0981EA11CB11CC114D10445
:10026000E104F10419F7DDCFFF90EF90DF90CF901C
:10027000BF90AF909F908F900895CF92DF92EF92B2
:10028000FF920F931F93CF93DF936C017A018B0141
:10029000C0E0D0E0CE15DF0581F0D8016D918D0171
:1002A000D601ED91FC910190F081E02DC6010995F8
:1002B000892B11F02196EECF7E01C701DF91CF91FE
:1002C0001F910F91FF90EF90DF90CF9008950895C8
:1002D00080E090E00895FC01538D448D252F30E09F
:1002E000842F90E0821B930B541710F0CF96089543
:1002F00001970895FC01918D828D981761F0828D90
:10030000DF01A80FB11D5D968C91928D9F5F9F7349
:10031000928F90E008958FEF9FEF0895FC01918DEB
:10032000828D981731F0828DE80FF11D858D90E058
:1003300008958FEF9FEF0895FC01918D228D892FF5
:1003400090E0805C9F4F821B91098F7399270895DD
:1003500087E891E00E949C0121E0892B09F420E0CC
:10036000822F0895FC01848DDF01A80FB11DA35ACF
:10037000BF4F2C91848D90E001968F739927848FC5
:10038000A689B7892C93A089B1898C9183708064E8
:100390008C93938D848D981306C00288F389E02D89
:1003A00080818F7D80830895EF92FF920F931F933A
:1003B000CF93DF93EC0181E0888F9B8D8C8D981318
:1003C00005C0E889F989808185FD26C0F62E0B8D50
:1003D00010E00F5F1F4F0F731127E02E8C8DE81276
:1003E0000CC00FB607FCFACFE889F989808185FF38
:1003F000F5CFCE010E94B201F1CF8B8DFE01E80F47
:10040000F11DE35AFF4FF0829FB7F8940B8FEA89F2
:10041000FB89808180620AC09FB7F894EE89FF89CA
:100420006083E889F98980818370806480839FBFBD
:1004300081E090E0DF91CF911F910F91FF90EF90BD
:100440000895CF93DF93EC01888D8823C9F0EA8962
:10045000FB89808185FD05C0A889B9898C9186FDBD
:100460000FC00FB607FCF5CF808185FFF2CFA889BA
:10047000B9898C9185FFEDCFCE010E94B201E7CF03
:10048000DF91CF91089580E090E0892B29F00E94C0
:10049000A80181110C9400000895009769F0FC01F7
:1004A00001900020E9F73197AF01481B590BBC01BF
:1004B00087E891E00C943D0180E090E00895CF93AF
:1004C000DF930E944D02EC0182E191E00E944D0217
:1004D0008C0F9D1FDF91CF9108958F929F92AF92C5
:1004E000BF920F931F93CF93DF93CDB7DEB7A19742
:1004F0000FB6F894DEBF0FBECDBF19A2423008F48C
:100500004AE08E010F5D1F4F842E912CA12CB12C3F
:10051000A50194010E941D07E62FB901CA010150EF
:100520001109EA3014F4E05D01C0E95CD801EC93F4
:10053000232B242B252B61F7C8010E944D02A19685
:100540000FB6F894DEBF0FBECDBFDF91CF911F91E4
:100550000F91BF90AF909F908F9008958F929F9230
:10056000AF92BF92CF92DF92EF92FF920F931F93C1
:10057000CF93DF936B017C01142F9B01AC010E9490
:100580007C09882319F085E191E027C046015701D5
:10059000E894B7F82FEF3FEF4FE75FE7C501B401ED
:1005A0000E947C0981110DC02FEF3FEF4FE75FE7FD
:1005B000C501B4010E94B20718161CF489E191E04C
:1005C0000CC02FEF3FEF4FE75FE4C701B6010E9479
:1005D0000A09181684F48DE191E0DF91CF911F9103
:1005E0000F91FF90EF90DF90CF90BF90AF909F90D2
:1005F0008F900C944D022FEF3FEF4FE75FECC70158
:10060000B6010E94B20787FDE6CF20E030E0A901E5
:10061000C701B6010E94B20787FF0BC06DE287E8F1
:1006200091E00E94D401EC01F7FAF094F7F8F0940D
:1006300002C0C0E0D0E000E060E070E080E09FE356
:10064000101741F020E030E040E251E40E94B7078B
:100650000F5FF6CFA70196010E9446076B017C0150
:100660000E9429084B015C014AE00E946D02C80FFC
:10067000D91F1123B9F1C501B4010E9458089B018B
:10068000AC01C701B6010E9445076B017C016EE217
:1006900087E891E00E94D401C80FD91F20E030E024
:1006A00040E251E4C701B6010E940F094B015C0111
:1006B0000E9429086B01E12CF12C4AE0C701B60128
:1006C0000E946D02C80FD91FC701B6010E945808C9
:1006D0009B01AC01C501B4010E9445076B017C017F
:1006E0001150E1F6CE01DF91CF911F910F91FF9054
:1006F000EF90DF90CF90BF90AF909F908F90089534
:100700000E9481091F920F920FB60F9211242F930E
:100710003F938F939F93AF93BF9380917F0190916D
:100720008001A0918101B091820130917E0123E08E
:10073000230F2D3720F40196A11DB11D05C026E819
:10074000230F0296A11DB11D20937E0180937F018E
:1007500090938001A0938101B093820180918301E5
:1007600090918401A0918501B09186010196A11D0F
:10077000B11D8093830190938401A0938501B09370
:100780008601BF91AF919F918F913F912F910F90D3
:100790000FBE0F901F9018951F920F920FB60F92D9
:1007A00011242F933F934F935F936F937F938F9376
:1007B0009F93AF93BF93EF93FF9387E891E00E94DD
:1007C000B201FF91EF91BF91AF919F918F917F9176
:1007D0006F915F914F913F912F910F900FBE0F90AE
:1007E0001F9018951F920F920FB60F9211242F93FE
:1007F0008F939F93EF93FF93E0919701F09198016E
:100800008081E0919D01F0919E0182FD12C0908156
:100810008091A0018F5F8F732091A101821751F009
:10082000E091A001F0E0E957FE4F958F8093A00181
:1008300001C08081FF91EF919F918F912F910F9037
:100840000FBE0F901F901895E7E8F1E01382128217
:1008500088EE93E0A0E0B0E084839583A683B7831D
:1008600084E091E09183808385EC90E09587848794
:1008700084EC90E09787868780EC90E0918B808B6A
:1008800081EC90E0938B828B82EC90E0958B848B53
:1008900086EC90E0978B868B118E128E138E148EC1
:1008A0008AE090E090932502809324020895CF93EC
:1008B000DF93CDB7DEB7E2970FB6F894DEBF0FBE79
:1008C000CDBF789484B5826084BD84B5816084BDD9
:1008D00085B5826085BD85B5816085BD80916E00DE
:1008E000816080936E00109281008091810082600F
:1008F000809381008091810081608093810080914C
:1009000080008160809380008091B100846080933A
:10091000B1008091B00081608093B00080917A0036
:10092000846080937A0080917A00826080937A005C
:1009300080917A00816080937A0080917A0080684B
:1009400080937A001092C100E0919701F091980194
:1009500082E08083E0919301F09194011082E09114
:100960009501F09196018FEC808310929F01E091A8
:100970009B01F0919C0186E08083E0919901F091C8
:100980009A01808180618083E0919901F0919A01C0
:10099000808188608083E0919901F0919A01808143
:1009A00080688083E0919901F0919A0180818F7D28
:1009B000808364EC79E080E090E00E940301809104
:1009C0002402909125029927FC01E656FF4F2491BD
:1009D000FC01EA57FF4F8491882399F090E0880F3B
:1009E000991FFC01EE58FF4FA591B491FC01E85905
:1009F000FF4F859194918FB7F894EC91E22BEC9393
:100A00008FBF20912402309125023327F901E2554E
:100A1000FF4F8491F901E656FF4F0491F901EA571F
:100A2000FF4F1491112391F081110E948C00E12F4E
:100A3000F0E0EE0FFF1FE859FF4FA591B4919FB76B
:100A4000F8948C91009508230C939FBF62E170E0AD
:100A500080E090E00E9403018091240290912502A1
:100A60009927FC01E656FF4F2491FC01EA57FF4FFE
:100A700084918823C9F090E0880F991FFC01EE58FB
:100A8000FF4FA591B491FC01E859FF4F4591549156
:100A90009FB7F8948C91E22FE0958E238C93DA0126
:100AA0008C91E823EC939FBF8BE990E00197F1F7DD
:100AB0008FB7F894C0907F01D0908001E0908101C1
:100AC000F09082018FBF809124020E94B500892B93
:100AD000B9F42FB7F89480917F0190918001A09193
:100AE0008101B09182012FBF8C199D09AE09BF0908
:100AF00084369105A105B10530F381E291E027C06C
:100B00008FB7F894C0907F01D0908001E090810170
:100B1000F09082018FBF809124020E94B50001975E
:100B200001F52FB7F89480917F0190918001A091F9
:100B30008101B09182012FBF8C199D09AE09BF09B7
:100B400084369105A105B10530F384E391E00E945C
:100B50005F0201E010E0812C912C540175016401C9
:100B60003DC18E010F5F1F4FFE01B996FAABE9AB95
:100B7000809124020E94B500892BD1F30E94DE00EF
:100B80006B017C01809124020E94B500019781F4E1
:100B90000E94DE00DC01CB018C199D09AE09BF0962
:100BA00084369105A105B10568F389E491E0CFCFC2
:100BB0000E94DE00DC01CB018C199D09AE09BF0942
:100BC00021E08E97A105B10508F420E0D8012D930E
:100BD0008D01E9A9FAA9EA17FB0751F68E010F5E0C
:100BE0001F4FF80120E030E060E070E0CB0142915F
:100BF00050E0022E02C0440F551F0A94E2F76A012A
:100C0000550FEE08FF086C0D7D1D8E1D9F1D2F5F7B
:100C10003F4F2031310559F70E945A0820E030E05B
:100C200040E251E40E94B7076B017C011E01F1E232
:100C30002F0E311CF10140E050E060E070E0CB018C
:100C4000229130E0042E02C0220F331F0A94E2F7F3
:100C50004901330FAA08BB08680D791D8A1D9B1D29
:100C60004F5F5F4F4F30510559F70E945A0820E0FF
:100C700030E040E251E40E94B7074B015C01FE0105
:100C8000399620E030E0412C512C3201829190E0E5
:100C9000022E02C0880F991F0A94E2F7092E000C59
:100CA000AA0BBB0B480E591E6A1E7B1E2F5F3F4FBF
:100CB0002830310559F720E030E01DA61EA61FA6FA
:100CC00018AAD8018E918D0190E0022E02C0880FE3
:100CD000991F0A94E2F7092E000CAA0BBB0B4DA535
:100CE0005EA56FA578A9480F591F6A1F7B1F4DA7E6
:100CF0005EA76FA778AB2F5F3F4F2830310509F70C
:100D0000FE01799620E030E019A61AA61BA61CA6C3
:100D1000829190E0022E02C0880F991F0A94E2F798
:100D2000092E000CAA0BBB0B49A55AA56BA57CA5E7
:100D3000480F591F6A1F7B1F49A75AA76BA77CA79B
:100D40002F5F3F4F2830310519F740E050E080E039
:100D500090E0DC01F10122911F0130E0042E02C07D
:100D6000220F331F0A94E2F78901330F220B330B52
:100D7000800F911FA21FB31F4F5F5F4F4830510577
:100D800049F7212C312C40E050E0BA01E9A9FAA939
:100D90002291FAABE9AB30E0022C02C0220F331FE4
:100DA0000A94E2F78901330F220B330B400F511FD6
:100DB000621F731FFFEF2F1A3F0A28E0221631042B
:100DC00029F7EDA54E0EF9A54F0E840D90E021E018
:100DD0008417950709F020E0122F00E042E0C701D8
:100DE000B6010E94AE0282E191E00E944D0242E013
:100DF000C501B4010E94AE0282E191E00E944D0261
:100E0000612F70E080E090E04AE00E946D0282E194
:100E100091E00E944D02602F70E080E090E04AE097
:100E20000E946D0282E191E00E944D0283E691E012
:100E30000E945F020E944302BCCDA1E21A2EAA1BAF
:100E4000BB1BFD010DC0AA1FBB1FEE1FFF1FA2177A
:100E5000B307E407F50720F0A21BB30BE40BF50B77
:100E6000661F771F881F991F1A9469F76095709500
:100E7000809590959B01AC01BD01CF010895EE0FC7
:100E8000FF1F0590F491E02D09945058BB27AA2725
:100E90000E945D070C94D0080E94C20838F00E949E
:100EA000C90820F039F49F3F19F426F40C94BF08C8
:100EB0000EF4E095E7FB0C94B908E92F0E94E108D5
:100EC00058F3BA17620773078407950720F079F47F
:100ED000A6F50C9403090EF4E0950B2EBA2FA02D65
:100EE0000B01B90190010C01CA01A0011124FF27D7
:100EF000591B99F0593F50F4503E68F11A16F040D2
:100F0000A22F232F342F4427585FF3CF46953795D0
:100F10002795A795F0405395C9F77EF41F16BA0B95
:100F2000620B730B840BBAF09150A1F0FF0FBB1F43
:100F3000661F771F881FC2F70EC0BA0F621F731F8C
:100F4000841F48F4879577956795B795F7959E3FE9
:100F500008F0B0CF9395880F08F09927EE0F97957A
:100F6000879508950E94950808F481E008950E94ED
:100F7000CB070C94D0080E94C90858F00E94C20800
:100F800040F029F45F3F29F00C94B90851110C94FA
:100F900004090C94BF080E94E10868F39923B1F397
:100FA000552391F3951B550BBB27AA27621773078F
:100FB000840738F09F5F5F4F220F331F441FAA1F23
:100FC000A9F335D00E2E3AF0E0E832D091505040DF
:100FD000E695001CCAF72BD0FE2F29D0660F771F8D
:100FE000881FBB1F261737074807AB07B0E809F073
:100FF000BB0B802DBF01FF2793585F4F3AF09E3FF8
:10100000510578F00C94B9080C9404095F3FE4F39F
:10101000983ED4F3869577956795B795F7959F5F3A
:10102000C9F7880F911D9695879597F90895E1E086
:10103000660F771F881FBB1F621773078407BA07E5
:1010400020F0621B730B840BBA0BEE1F88F7E09540
:1010500008950E94E90888F09F5798F0B92F9927C2
:10106000B751B0F0E1F0660F771F881F991F1AF093
:10107000BA95C9F714C0B13091F00E940309B1E0EC
:1010800008950C940309672F782F8827B85F39F0EB
:10109000B93FCCF3869577956795B395D9F73EF42C
:1010A00090958095709561957F4F8F4F9F4F0895D4
:1010B000E89409C097FB3EF49095809570956195F2
:1010C0007F4F8F4F9F4F9923A9F0F92F96E9BB27A8
:1010D0009395F695879577956795B795F111F8CF24
:1010E000FAF4BB0F11F460FF1BC06F5F7F4F8F4F8F
:1010F0009F4F16C0882311F096E911C0772321F085
:101100009EE8872F762F05C0662371F096E8862F1C
:1011100070E060E02AF09A95660F771F881FDAF773
:10112000880F9695879597F90895990F0008550FA0
:10113000AA0BE0E8FEEF16161706E807F907C0F05D
:1011400012161306E407F50798F0621B730B840B65
:10115000950B39F40A2661F0232B242B252B21F43F
:1011600008950A2609F4A140A6958FEF811D811DDF
:10117000089597F99F6780E870E060E008959FEF19
:1011800080EC089500240A9416161706180609061E
:10119000089500240A9412161306140605060895ED
:1011A000092E0394000C11F4882352F0BB0F40F475
:1011B000BF2B11F460FF04C06F5F7F4F8F4F9F4FB5
:1011C000089557FD9058440F551F59F05F3F71F037
:1011D0004795880F97FB991F61F09F3F79F087959E
:1011E0000895121613061406551FF2CF4695F1DF27
:1011F00008C0161617061806991FF1CF86957105B7
:10120000610508940895E894BB2766277727CB01EA
:1012100097F908950E94950808F48FEF08950E94A9
:1012200022090C94D0080E94C20838F00E94C90814
:1012300020F0952311F00C94B9080C94BF081124E8
:101240000C9404090E94E10870F3959FC1F3950F77
:1012500050E0551F629FF001729FBB27F00DB11D3A
:10126000639FAA27F00DB11DAA1F649F6627B00DCA
:10127000A11D661F829F2227B00DA11D621F739FB3
:10128000B00DA11D621F839FA00D611D221F749FC1
:101290003327A00D611D231F849F600D211D822F08
:1012A000762F6A2F11249F5750409AF0F1F088232F
:1012B0004AF0EE0FFF1FBB1F661F771F881F91505C
:1012C0005040A9F79E3F510580F00C94B9080C944A
:1012D00004095F3FE4F3983ED4F3869577956795CC
:1012E000B795F795E7959F5FC1F7FE2B880F911D86
:1012F0009695879597F908950E949508880B990B04
:10130000089581E090E0F8940C948609F894FFCF5A
:1013100000000000D4013D016B0121029C017A0113
:101320008E010D0A006E616E00696E66006F766652
:101330000054696D656F7574206669727374206CF2
:101340006F77210054696D656F7574207365636FE5
:101350006E642068696768210054696D656F7574F3
:101360002048494748205349474E414C2052454167
:101370004421002D2D2D2D2D2D2D2D2D2D2D2D2DBF
:0E1380002D2D2D2D2D2D2D2D2D2D2D3E000032
:00000001FF
