:100000000C9462000C948A000C948A000C948A0070
:100010000C948A000C948A000C948A000C948A0038
:100020000C948A000C948A000C948A000C948A0028
:100030000C948A000C948A000C948A000C948A0018
:100040000C949D020C948A000C940D030C94E7020E
:100050000C948A000C948A000C948A000C948A00F8
:100060000C948A000C948A000000000024002700F1
:100070002A000000000023002600290000000000E4
:10008000250028002B0004040404040404040202D4
:100090000202020203030303030301020408102007
:1000A0004080010204081020010204081020000012
:1000B0000008000201000003040700000000000027
:1000C0000000190611241FBECFEFD8E0DEBFCDBF60
:1000D00011E0A0E0B1E0E6EAF1E102C005900D9286
:1000E000AE33B107D9F721E0AEE3B1E001C01D9214
:1000F000A53EB207E1F710E0C2E6D0E004C02197C8
:10010000FE010E947006C136D107C9F70E943F0365
:100110000C94D1080C940000833081F028F48130D5
:1001200099F08230A1F008958730A9F08830B9F0B5
:100130008430D1F4809180008F7D03C08091800055
:100140008F7780938000089584B58F7702C084B53F
:100150008F7D84BD08958091B0008F7703C080911A
:10016000B0008F7D8093B00008951F93CF93DF93ED
:10017000E8EBF0E09491E4EAF0E0D491E0E9F0E01B
:10018000C491CC23D1F0182F992319F0892F0E9404
:100190008C00EC2FF0E0EE0FFF1FE458FF4FA5910D
:1001A000B4919FB7F894111104C08C91D095D823C5
:1001B00002C0EC91DE2BDC939FBFDF91CF911F91AA
:1001C0000895CF93DF93E8EBF0E08491E4EAF0E068
:1001D000D491E0E9F0E0C491CC2391F081110E9428
:1001E0008C00EC2FF0E0EE0FFF1FEE58FF4FA591B3
:1001F000B491EC91ED2381E090E021F480E002C025
:1002000080E090E0DF91CF9108953FB7F89480911E
:10021000440190914501A0914601B091470126B556
:10022000A89B05C02F3F19F00196A11DB11D3FBF2E
:10023000BA2FA92F982F8827820F911DA11DB11DBC
:10024000BC01CD0142E0660F771F881F991F4A95B8
:10025000D1F70895CF92DF92EF92FF920F931F9301
:10026000CF93DF936C017A018B01C0E0D0E0CE1513
:10027000DF0581F0D8016D918D01D601ED91FC91E2
:100280000190F081E02DC6010995892B11F021968E
:10029000EECF7E01C701DF91CF911F910F91FF90AB
:1002A000EF90DF90CF900895089580E090E008955A
:1002B000FC01538D448D252F30E0842F90E0821B6C
:1002C000930B541710F0CF96089501970895FC01F1
:1002D000918D828D981761F0828DDF01A80FB11D7D
:1002E0005D968C91928D9F5F9F73928F90E00895A1
:1002F0008FEF9FEF0895FC01918D828D981731F05B
:10030000828DE80FF11D858D90E008958FEF9FEFAE
:100310000895FC01918D228D892F90E0805C9F4F84
:10032000821B91098F739927089588E491E00E94B8
:10033000890121E0892B09F420E0822F0895FC0136
:10034000848DDF01A80FB11DA35ABF4F2C91848D5E
:1003500090E001968F739927848FA689B7892C9393
:10036000A089B1898C91837080648C93938D848DE6
:10037000981306C00288F389E02D80818F7D8083E9
:100380000895EF92FF920F931F93CF93DF93EC01A9
:1003900081E0888F9B8D8C8D981305C0E889F98941
:1003A000808185FD26C0F62E0B8D10E00F5F1F4F5C
:1003B0000F731127E02E8C8DE8120CC00FB607FCCE
:1003C000FACFE889F989808185FFF5CFCE010E94B7
:1003D0009F01F1CF8B8DFE01E80FF11DE35AFF4F16
:1003E000F0829FB7F8940B8FEA89FB898081806245
:1003F0000AC09FB7F894EE89FF896083E889F9897C
:1004000080818370806480839FBF81E090E0DF9172
:10041000CF911F910F91FF90EF900895CF93DF93AD
:10042000EC01888D8823C9F0EA89FB89808185FDEC
:1004300005C0A889B9898C9186FD0FC00FB607FC4D
:10044000F5CF808185FFF2CFA889B9898C9185FF8E
:10045000EDCFCE010E949F01E7CFDF91CF910895AC
:1004600080E090E0892B29F00E94950181110C9485
:1004700000000895009769F0FC0101900020E9F761
:100480003197AF01481B590BBC0188E491E00C94F3
:100490002A0180E090E008958F929F92AF92BF92E0
:1004A0000F931F93CF93DF93CDB7DEB7A1970FB60E
:1004B000F894DEBF0FBECDBF19A2423008F44AE067
:1004C0008E010F5D1F4F842E912CA12CB12CA50104
:1004D00094010E944606E62FB901CA010150110994
:1004E000EA3014F4E05D01C0E95CD801EC93232B01
:1004F000242B252B61F7C8010E943A02A1960FB662
:10050000F894DEBF0FBECDBFDF91CF911F910F9149
:10051000BF90AF909F908F900895CF93DF930E94EC
:100520003A02EC0182E191E00E943A028C0F9D1F99
:10053000DF91CF9108950E94CC081F920F920FB6C1
:100540000F9211242F933F938F939F93AF93BF9359
:100550008091400190914101A0914201B0914301ED
:1005600030913F0123E0230F2D3720F40196A11D88
:10057000B11D05C026E8230F0296A11DB11D2093D1
:100580003F018093400190934101A0934201B093B9
:1005900043018091440190914501A0914601B091A1
:1005A00047010196A11DB11D80934401909345011F
:1005B000A0934601B0934701BF91AF919F918F9156
:1005C0003F912F910F900FBE0F901F9018951F9283
:1005D0000F920FB60F9211242F933F934F935F9377
:1005E0006F937F938F939F93AF93BF93EF93FF93FB
:1005F00088E491E00E949F01FF91EF91BF91AF913C
:100600009F918F917F916F915F914F913F912F912A
:100610000F900FBE0F901F9018951F920F920FB65C
:100620000F9211242F938F939F93EF93FF93E09159
:100630005801F09159018081E0915E01F0915F01D4
:1006400082FD12C09081809161018F5F8F73209134
:100650006201821751F0E0916101F0E0E85BFE4F2A
:10066000958F8093610101C08081FF91EF919F91EF
:100670008F912F910F900FBE0F901F901895CF93D1
:10068000DF93CDB7DEB7C75AD1090FB6F894DEBFF6
:100690000FBECDBF789484B5826084BD84B581607F
:1006A00084BD85B5826085BD85B5816085BD80913D
:1006B0006E00816080936E001092810080918100B5
:1006C00082608093810080918100816080938100AD
:1006D000809180008160809380008091B10084606F
:1006E0008093B1008091B00081608093B0008091D0
:1006F0007A00846080937A0080917A00826080938F
:100700007A0080917A00816080937A0080917A00EB
:10071000806880937A001092C100E0915801F091B6
:10072000590182E08083E0915401F09155011082DB
:10073000E0915601F09157018FEC80831092600197
:10074000E0915C01F0915D0186E08083E0915A01C7
:10075000F0915B01808180618083E0915A01F0918A
:100760005B01808188608083E0915A01F0915B0198
:10077000808180688083E0915A01F0915B018081E3
:100780008F7D8083CE018F559F4FCF55DF4F99834B
:100790008883C15AD04080913E018111EFC1E4EAC3
:1007A000F0E0249100E910E0F8018491882399F0A9
:1007B00090E0880F991FFC01E859FF4FA591B49173
:1007C000FC01E458FF4F859194919FB7F8948C9168
:1007D000282B2C939FBF80E00E94B5000E9405014A
:1007E0006B017C010E940501DC01CB018C199D0984
:1007F000AE09BF09883E9340A105B10598F381E099
:100800000E94B500E4EAF0E08491F801049100232D
:10081000C1F010E0000F111FF801E859FF4FA5913A
:10082000B491F801E458FF4F259134914FB7F894F3
:100830009C91809598239C93D9019C9189238C93BA
:100840004FBF0E94E100892BE1F70E94E100019770
:10085000E1F7312C00E010E0C12CD12C76010E9490
:10086000E1005C010E94E1004C01AB28F9F4013089
:10087000110509F086C10E940501641575058605FC
:10088000970568F4930182010095109520953095A5
:10089000DC01CB01800F911FA21FB31F7BC1DC01C4
:1008A000CB0184199509A609B70974C10197B9F458
:1008B0003320A9F0CD55DF4F2881C35AD0402111F4
:1008C0000AC00E9405012B013C0181E0CD55DF4F9C
:1008D0008883C35AD0403324339401E010E098E277
:1008E000C916D104E104F10408F4B9CF8E010F5FF9
:1008F0001F4F7801D7016D917D918D919D917D0163
:100900004AE00E944C0285E191E00E943A02CF55F4
:10091000DF4FE881F981C15AD040EE16FF0651F74A
:1009200082E191E00E943A0287E191E00E948D020B
:100930001E01F1E42F0E311CD8016D917D918D9136
:100940009D918D014AE00E944C0202151305A1F70A
:100950008E010F571F4F7801E0E0F0E0812C912CC1
:10096000540181E090E00E2E02C0880F991F0A9476
:10097000E2F7D7015E914E913E912E917D01DC010F
:100980000E946806860E971EA81EB91E3196E03199
:10099000F10539F7C501B4010E94A50720E030E058
:1009A00040E251E40E9402076B017C014B015C01B3
:1009B00084E191E00E948D0281E291E00E948D022B
:1009C000A7019601C701B6010E94C708882319F044
:1009D00087E291E027C0D701C601BF77CC55DF4F32
:1009E00088839983AA83BB83C45AD0402FEF3FEFFB
:1009F0004FE75FE7BC01CD010E94C708811115C018
:100A00002FEF3FEF4FE75FE7CC55DF4F68817981EC
:100A10008A819B81C45AD0400E94FD0618162CF48E
:100A20008BE291E00E943A0278C02FEF3FEF4FE750
:100A30005FE4C701B6010E94550818161CF48FE246
:100A400091E0F0CF2FEF3FEF4FE75FECC701B6012A
:100A50000E94FD0687FDF3CF20E030E0A901C70129
:100A6000B6010E94FD0687FF0BC06DE288E491E0AD
:100A70000E94C10146015701B7FAB094B7F8B0948B
:100A80002AE037ED43EA5BE3C501B4010E94910619
:100A90004B015C010E9474076B017C010E94A3075B
:100AA0009B01AC01C501B4010E9490064B015C01A1
:100AB0004AE0C701B6010E944C026EE288E491E070
:100AC0000E94C10120E030E040E251E4C501B401E0
:100AD0000E945A084B015C010E9474076B01E12CD3
:100AE000F12C4AE0C701B6010E944C02C701B601D1
:100AF0000E94A3079B01AC01C501B4010E949006AE
:100B000020E030E040E251E40E945A080E9474075D
:100B100080E090E04AE00E944C0282E191E00E9475
:100B20003A0284E191E00E948D02D1016D917D91A4
:100B30008D919D911D014AE00E944C020215130502
:100B4000A1F784E191E00E948D0283E391E00E948D
:100B50008D02F80161917191819191918F014AE02B
:100B60000E944C02CF55DF4F88819981C15AD040F5
:100B70008017910771F781E080933E010E94300257
:100B80000ACE8A94892809F495CE3324339400E060
:100B900010E0A5CE8C019D010C53110921093109EA
:100BA000093211052105310528F10797A109B1097D
:100BB0009601220F331F220F331F8997A105B1051C
:100BC00048F5E1E0F0E0EC0FFD1FE20FF31F1082AB
:100BD000118212821382BFEFCB1ADB0AEB0AFB0AE7
:100BE0008A94892809F46DCECD55DF4F1882C35AF7
:100BF000D040CBCFF601EE0FFF1FEE0FFF1FA1E09D
:100C0000B0E0AC0FBD1FEA0FFB1F81E090E0A0E059
:100C1000B0E00AC0E1E0F0E0EC0FFD1FE20FF31FCF
:100C200085E090E0A0E0B0E080839183A283B3836D
:100C3000D2CFE8E4F1E01382128288EE93E0A0E0E4
:100C4000B0E084839583A683B78384E091E09183A9
:100C5000808385EC90E09587848784EC90E097878B
:100C6000868780EC90E0918B808B81EC90E0938B79
:100C7000828B82EC90E0958B848B86EC90E0978B56
:100C8000868B118E128E138E148E0895A1E21A2E69
:100C9000AA1BBB1BFD010DC0AA1FBB1FEE1FFF1F20
:100CA000A217B307E407F50720F0A21BB30BE40B70
:100CB000F50B661F771F881F991F1A9469F76095B7
:100CC0007095809590959B01AC01BD01CF01089571
:100CD000B7FF0C9476060E947606821B930B08954C
:100CE000EE0FFF1F0590F491E02D09940E948106FC
:100CF000A59F900DB49F900DA49F800D911D112470
:100D00000895A29FB001B39FC001A39F700D811DE4
:100D10001124911DB29F700D811D1124911D089504
:100D20005058BB27AA270E94A8060C941B080E94B3
:100D30000D0838F00E94140820F039F49F3F19F490
:100D400026F40C940A080EF4E095E7FB0C940408D2
:100D5000E92F0E942C0858F3BA176207730784071B
:100D6000950720F079F4A6F50C944E080EF4E09562
:100D70000B2EBA2FA02D0B01B90190010C01CA0155
:100D8000A0011124FF27591B99F0593F50F4503E00
:100D900068F11A16F040A22F232F342F4427585FF2
:100DA000F3CF469537952795A795F0405395C9F70A
:100DB0007EF41F16BA0B620B730B840BBAF09150C2
:100DC000A1F0FF0FBB1F661F771F881FC2F70EC061
:100DD000BA0F621F731F841F48F487957795679534
:100DE000B795F7959E3F08F0B0CF9395880F08F020
:100DF0009927EE0F9795879508950E94E00708F4CC
:100E000081E008950E9416070C941B080E941408A4
:100E100058F00E940D0840F029F45F3F29F00C942F
:100E2000040851110C944F080C940A080E942C08D5
:100E300068F39923B1F3552391F3951B550BBB2709
:100E4000AA2762177307840738F09F5F5F4F220F4E
:100E5000331F441FAA1FA9F335D00E2E3AF0E0E845
:100E600032D091505040E695001CCAF72BD0FE2F8F
:100E700029D0660F771F881FBB1F26173707480723
:100E8000AB07B0E809F0BB0B802DBF01FF279358DB
:100E90005F4F3AF09E3F510578F00C9404080C9493
:100EA0004F085F3FE4F3983ED4F3869577956795B6
:100EB000B795F7959F5FC9F7880F911D9695879510
:100EC00097F90895E1E0660F771F881FBB1F62172F
:100ED00073078407BA0720F0621B730B840BBA0BED
:100EE000EE1F88F7E09508950E94340888F09F5718
:100EF00098F0B92F9927B751B0F0E1F0660F771F3E
:100F0000881F991F1AF0BA95C9F714C0B13091F033
:100F10000E944E08B1E008950C944E08672F782F78
:100F20008827B85F39F0B93FCCF3869577956795F8
:100F3000B395D9F73EF490958095709561957F4F64
:100F40008F4F9F4F0895E89409C097FB3EF490950A
:100F50008095709561957F4F8F4F9F4F9923A9F092
:100F6000F92F96E9BB279395F69587957795679521
:100F7000B795F111F8CFFAF4BB0F11F460FF1BC065
:100F80006F5F7F4F8F4F9F4F16C0882311F096E9F8
:100F900011C0772321F09EE8872F762F05C06623A6
:100FA00071F096E8862F70E060E02AF09A95660F5F
:100FB000771F881FDAF7880F9695879597F9089518
:100FC000990F0008550FAA0BE0E8FEEF161617065A
:100FD000E807F907C0F012161306E407F50798F0C2
:100FE000621B730B840B950B39F40A2661F0232BDB
:100FF000242B252B21F408950A2609F4A140A69557
:101000008FEF811D811D089597F99F6780E870E03B
:1010100060E008959FEF80EC089500240A9416166E
:10102000170618060906089500240A9412161306D6
:10103000140605060895092E0394000C11F4882364
:1010400052F0BB0F40F4BF2B11F460FF04C06F5F80
:101050007F4F8F4F9F4F089557FD9058440F551F56
:1010600059F05F3F71F04795880F97FB991F61F02A
:101070009F3F79F087950895121613061406551FA1
:10108000F2CF4695F1DF08C0161617061806991F0D
:10109000F1CF86957105610508940895E894BB2702
:1010A00066277727CB0197F908950E94E00708F497
:1010B0008FEF08950E946D080C941B080E940D0884
:1010C00038F00E94140820F0952311F00C940408C5
:1010D0000C940A0811240C944F080E942C0870F3F9
:1010E000959FC1F3950F50E0551F629FF001729FCD
:1010F000BB27F00DB11D639FAA27F00DB11DAA1FDC
:10110000649F6627B00DA11D661F829F2227B00D28
:10111000A11D621F739FB00DA11D621F839FA00DB3
:10112000611D221F749F3327A00D611D231F849F03
:10113000600D211D822F762F6A2F11249F5750405A
:101140009AF0F1F088234AF0EE0FFF1FBB1F661FD5
:10115000771F881F91505040A9F79E3F510580F09E
:101160000C9404080C944F085F3FE4F3983ED4F3CA
:10117000869577956795B795F795E7959F5FC1F742
:10118000FE2B880F911D9695879597F908950E94DB
:10119000E007880B990B089581E090E0F8940C9497
:0611A000D108F894FFCF16
:1011A60000000000C1012A0158010E0289016701F1
:1011B6007B010D0A002C0048756D69646974793AE3
:1011C6000054656D703A006E616E00696E66006F60
:0E11D600766600436865636B73756D3A0000C2
:00000001FF
