:100000000C9462000C948A000C948A000C948A0070
:100010000C948A000C948A000C948A000C948A0038
:100020000C948A000C948A000C948A000C948A0028
:100030000C948A000C948A000C948A000C948A0018
:100040000C94B8030C948A000C9428040C940204B9
:100050000C948A000C948A000C948A000C948A00F8
:100060000C948A000C948A000000000025002800EF
:100070002B0000000000240027002A0000000000E0
:1000800023002600290004040404040404040202DA
:100090000202020203030303030301020408102007
:1000A0004080010204081020010204081020000012
:1000B0000008000201000003040700000000000027
:1000C00000005A0411241FBECFEFD8E0DEBFCDBF21
:1000D00011E0A0E0B1E0E0EEF2E102C005900D9287
:1000E000AC33B107D9F721E0ACE3B1E001C01D9218
:1000F000A43EB207E1F710E0C2E6D0E004C02197C9
:10010000FE010E942707C136D107C9F70E948D045E
:100110000C946E090C940000833081F028F4813037
:1001200099F08230A1F008958730A9F08830B9F0B5
:100130008430D1F4809180008F7D03C08091800055
:100140008F7780938000089584B58F7702C084B53F
:100150008F7D84BD08958091B0008F7703C080911A
:10016000B0008F7D8093B00008958F929F92AF92E0
:10017000BF92CF92DF92EF92FF920F931F93CF9394
:10018000DF936A017B019FB7F894809041019090C2
:100190004201A0904301B09044019FBFC82F880F37
:1001A000DD0B2091E2013091E3013327F901E255A3
:1001B000FF4F8491F901E656FF4F1491F901EA5778
:1001C000FF4F04910023A1F081110E948C00E02FC9
:1001D000F0E0EE0FFF1FE458FF4FA591B491EC91B2
:1001E0001E2331E020E009F430E0832F922F02C07B
:1001F00080E090E0C817D907B9F42FB7F894809140
:10020000410190914201A0914301B09144012FBF5F
:1002100088199909AA09BB098C159D05AE05BF056A
:1002200008F4BFCF81E001C080E0DF91CF911F9142
:100230000F91FF90EF90DF90CF90BF90AF909F9085
:100240008F9008953FB7F89480913D0190913E01C1
:10025000A0913F01B091400126B5A89B05C02F3F5A
:1002600019F00196A11DB11D3FBFBA2FA92F982FDC
:100270008827820F911DA11DB11DBC01CD0142E057
:10028000660F771F881F991F4A95D1F708958F929F
:100290009F92AF92BF92CF92DF92EF92FF926B014B
:1002A0007C010E9422014B015C01C114D104E104D4
:1002B000F104F1F00E942201DC01CB0188199909B7
:1002C000AA09BB09883E9340A105B10570F321E05E
:1002D000C21AD108E108F10888EE880E83E0981E62
:1002E000A11CB11CC114D104E104F10419F7DDCF44
:1002F000FF90EF90DF90CF90BF90AF909F908F9046
:100300000895CF92DF92EF92FF920F931F93CF93B6
:10031000DF936C017A018B01C0E0D0E0CE15DF05E0
:1003200081F0D8016D918D01D601ED91FC91019084
:10033000F081E02DC6010995892B11F02196EECFB1
:100340007E01C701DF91CF911F910F91FF90EF9038
:10035000DF90CF900895089580E090E00895FC012B
:10036000538D448D252F30E0842F90E0821B930B1A
:10037000541710F0CF96089501970895FC01918DC0
:10038000828D981761F0828DDF01A80FB11D5D96F7
:100390008C91928D9F5F9F73928F90E008958FEF65
:1003A0009FEF0895FC01918D828D981731F0828D19
:1003B000E80FF11D858D90E008958FEF9FEF089570
:1003C000FC01918D228D892F90E0805C9F4F821BD4
:1003D00091098F739927089585E491E00E94E001C7
:1003E00021E0892B09F420E0822F0895FC01848DFF
:1003F000DF01A80FB11DA35ABF4F2C91848D90E04F
:1004000001968F739927848FA689B7892C93A08929
:10041000B1898C91837080648C93938D848D9813B3
:1004200006C00288F389E02D80818F7D8083089546
:10043000EF92FF920F931F93CF93DF93EC0181E034
:10044000888F9B8D8C8D981305C0E889F9898081F0
:1004500085FD26C0F62E0B8D10E00F5F1F4F0F732A
:100460001127E02E8C8DE8120CC00FB607FCFACFD6
:10047000E889F989808185FFF5CFCE010E94F601D8
:10048000F1CF8B8DFE01E80FF11DE35AFF4FF08293
:100490009FB7F8940B8FEA89FB89808180620AC03C
:1004A0009FB7F894EE89FF896083E889F989808194
:1004B0008370806480839FBF81E090E0DF91CF9163
:1004C0001F910F91FF90EF900895CF93DF93EC0170
:1004D000888D8823C9F0EA89FB89808185FD05C064
:1004E000A889B9898C9186FD0FC00FB607FCF5CF9E
:1004F000808185FFF2CFA889B9898C9185FFEDCFE6
:10050000CE010E94F601E7CFDF91CF91089580E000
:1005100090E0892B29F00E94EC0181110C940000DD
:100520000895009769F0FC0101900020E9F73197E8
:10053000AF01481B590BBC0185E491E00C9481018B
:1005400080E090E008958F929F92AF92BF920F93B8
:100550001F93CF93DF93CDB7DEB7A1970FB6F89473
:10056000DEBF0FBECDBF19A2423008F44AE08E01B3
:100570000F5D1F4F842E912CA12CB12CA50194014D
:100580000E940507E62FB901CA0101501109EA309E
:1005900014F4E05D01C0E95CD801EC93232B242B1B
:1005A000252B61F7C8010E949102A1960FB6F8941D
:1005B000DEBF0FBECDBFDF91CF911F910F91BF90D6
:1005C000AF909F908F9008958F929F92AF92BF921D
:1005D000CF92DF92EF92FF920F931F93CF93DF930F
:1005E0006B017C01142F9B01AC010E9464098823DC
:1005F00019F082E191E027C046015701E894B7F86D
:100600002FEF3FEF4FE75FE7C501B4010E94640998
:1006100081110DC02FEF3FEF4FE75FE7C501B40138
:100620000E949A0718161CF486E191E00CC02FEF87
:100630003FEF4FE75FE4C701B6010E94F2081816CA
:1006400084F48AE191E0DF91CF911F910F91FF90A7
:10065000EF90DF90CF90BF90AF909F908F900C94D1
:1006600091022FEF3FEF4FE75FECC701B6010E9409
:100670009A0787FDE6CF20E030E0A901C701B60167
:100680000E949A0787FF0BC06DE285E491E00E940B
:100690001802EC01F7FAF094F7F8F09402C0C0E009
:1006A000D0E000E060E070E080E09FE3101741F0F0
:1006B00020E030E040E251E40E949F070F5FF6CF58
:1006C000A70196010E942E076B017C010E94110870
:1006D0004B015C014AE00E94A302C80FD91F1123FD
:1006E000B9F1C501B4010E9440089B01AC01C701EA
:1006F000B6010E942D076B017C016EE285E491E05A
:100700000E941802C80FD91F20E030E040E251E4F7
:10071000C701B6010E94F7084B015C010E94110855
:100720006B01E12CF12C4AE0C701B6010E94A30243
:10073000C80FD91FC701B6010E9440089B01AC0138
:10074000C501B4010E942D076B017C011150E1F637
:10075000CE01DF91CF911F910F91FF90EF90DF902D
:10076000CF90BF90AF909F908F9008950E9469099D
:100770001F920F920FB60F9211242F933F938F93D6
:100780009F93AF93BF938091410190914201A091BB
:100790004301B091440130913C0123E0230F2D37F8
:1007A00020F40196A11DB11D05C026E8230F029675
:1007B000A11DB11D20933C01809341019093420102
:1007C000A0934301B093440180913D0190913E017B
:1007D000A0913F01B09140010196A11DB11D8093F0
:1007E0003D0190933E01A0933F01B0934001BF9122
:1007F000AF919F918F913F912F910F900FBE0F90CE
:100800001F9018951F920F920FB60F9211242F93DD
:100810003F934F935F936F937F938F939F93AF9388
:10082000BF93EF93FF9385E491E00E94F601FF915F
:10083000EF91BF91AF919F918F917F916F915F9158
:100840004F913F912F910F900FBE0F901F901895D1
:100850001F920F920FB60F9211242F938F939F9395
:10086000EF93FF93E0915501F09156018081E09163
:100870005B01F0915C0182FD12C0908180915E016C
:100880008F5F8F7320915F01821751F0E0915E01BD
:10089000F0E0EB5BFE4F958F80935E0101C080819D
:1008A000FF91EF919F918F912F910F900FBE0F901D
:1008B0001F901895E5E4F1E01382128288EE93E030
:1008C000A0E0B0E084839583A683B78384E091E0C1
:1008D0009183808385EC90E09587848784EC90E019
:1008E0009787868780EC90E0918B808B81EC90E0FD
:1008F000938B828B82EC90E0958B848B86EC90E0DE
:10090000978B868B118E128E138E148E8AE090E058
:100910009093E3018093E2010895CF93DF93CDB7E5
:10092000DEB7E2970FB6F894DEBF0FBECDBF789466
:1009300084B5826084BD84B5816084BD85B58260E4
:1009400085BD85B5816085BD80916E008160809395
:100950006E001092810080918100826080938100FE
:10096000809181008160809381008091800081600E
:10097000809380008091B10084608093B100809169
:10098000B00081608093B00080917A008460809391
:100990007A0080917A00826080937A0080917A0058
:1009A000816080937A0080917A00806880937A00D9
:1009B0001092C100E0915501F091560182E08083D0
:1009C000E0915101F09152011082E0915301F091B8
:1009D00054018FEC808310925D01E0915901F091F8
:1009E0005A0186E08083E0915701F091580180819F
:1009F00080618083E0915701F09158018081886087
:100A00008083E0915701F091580180818068808354
:100A1000E0915701F091580180818F7D808364ECD3
:100A200079E080E090E00E9447018091E20190919E
:100A3000E3019927FC01E656FF4F2491FC01EA5798
:100A4000FF4F8491882399F090E0880F991FFC0153
:100A5000EE58FF4FA591B491FC01E859FF4F8591E5
:100A600094918FB7F894EC91E22BEC938FBF209187
:100A7000E2013091E3013327F901E255FF4F849100
:100A8000F901E656FF4F0491F901EA57FF4F14911F
:100A9000112391F081110E948C00E12FF0E0EE0F04
:100AA000FF1FE859FF4FA591B4919FB7F8948C911F
:100AB000009508230C939FBF62E170E080E090E016
:100AC0000E9447018091E2019091E3019927FC0186
:100AD000E656FF4F2491FC01EA57FF4F849188238B
:100AE000C9F090E0880F991FFC01EE58FF4FA591C7
:100AF000B491FC01E859FF4F459154919FB7F89488
:100B00008C91E22FE0958E238C93DA018C91E8236F
:100B1000EC939FBF8BE990E00197F1F744E650E03A
:100B200060E070E080E00E94B500811163C144E69E
:100B300050E060E070E081E00E94B50081115AC190
:100B40008E010F5F1F4FFE01B996FAA7E9A744EF88
:100B500051E060E070E080E00E94B50081114AC180
:100B60000E9422016B017C0144EF51E060E070E0E3
:100B700081E00E94B50081113DC10E942201DC018B
:100B8000CB018C199D09AE09BF0921E08E97A10503
:100B9000B10508F420E0D8012D938D01E9A5FAA54F
:100BA000EA17FB07A1F68E010F5E1F4FF80120E048
:100BB00030E060E070E0CB01429150E0022E02C0D4
:100BC000440F551F0A94E2F76A01550FEE08FF081B
:100BD0006C0D7D1D8E1D9F1D2F5F3F4F20313105F8
:100BE00059F70E94420820E030E040E251E40E94C0
:100BF0009F076FA778AB89AB9AAB1E01F1E22F0E6E
:100C0000311CF10140E050E060E070E0CB01229146
:100C100030E0042E02C0220F331F0A94E2F749018C
:100C2000330FAA08BB08680D791D8A1D9B1D4F5FF5
:100C30005F4F4F30510559F70E94420820E030E0E5
:100C400040E251E40E949F076BA77CA78DA79EA757
:100C5000FE01399620E030E0412C512C3201829186
:100C600090E0022E02C0880F991F0A94E2F7092E25
:100C7000000CAA0BBB0B480E591E6A1E7B1E2F5F71
:100C80003F4F2830310559F720E030E0812C912C7E
:100C90005401D8018E918D0190E0022E02C0880F80
:100CA000991F0A94E2F7092E000CAA0BBB0B880EC1
:100CB000991EAA1EBB1E2F5F3F4F2830310549F7F2
:100CC000FE01799620E030E0C12CD12C7601829192
:100CD00090E0022E02C0880F991F0A94E2F7092EB5
:100CE000000CAA0BBB0BC80ED91EEA1EFB1E2F5F01
:100CF0003F4F2830310559F740E050E080E090E068
:100D0000DC01F10122911F0130E0042E02C0220F0C
:100D1000331F0A94E2F78901330F220B330B800F44
:100D2000911FA21FB31F4F5F5F4F4830510549F716
:100D3000212C312C40E050E0BA01E9A5FAA522911E
:100D4000FAA7E9A730E0022C02C0220F331F0A9451
:100D5000E2F78901330F220B330B400F511F621F43
:100D6000731FFFEF2F1A3F0A28E02216310429F7DC
:100D7000480C4C0C840D90E021E08417950709F095
:100D800020E0122F00E042E06FA578A989A99AA976
:100D90000E94E4028EE191E00E94910242E06BA584
:100DA0007CA58DA59EA50E94E4028EE191E00E94A3
:100DB0009102612F70E080E090E04AE00E94A3027F
:100DC0008EE191E00E949102602F70E080E090E05F
:100DD0004AE00E94A3028EE191E00E94910281E22A
:100DE00091E00E9491028EE191E00E9491020E94A6
:100DF000870215CE01E010E01BA61CA61DA61EA6AC
:100E00001FA618AA19AA1AAABECFA1E21A2EAA1BB7
:100E1000BB1BFD010DC0AA1FBB1FEE1FFF1FA217AA
:100E2000B307E407F50720F0A21BB30BE40BF50BA7
:100E3000661F771F881F991F1A9469F76095709530
:100E4000809590959B01AC01BD01CF010895EE0FF7
:100E5000FF1F0590F491E02D09945058BB27AA2755
:100E60000E9445070C94B8080E94AA0838F00E9416
:100E7000B10820F039F49F3F19F426F40C94A70828
:100E80000EF4E095E7FB0C94A108E92F0E94C90835
:100E900058F3BA17620773078407950720F079F4AF
:100EA000A6F50C94EB080EF4E0950B2EBA2FA02DAE
:100EB0000B01B90190010C01CA01A0011124FF2707
:100EC000591B99F0593F50F4503E68F11A16F04002
:100ED000A22F232F342F4427585FF3CF4695379501
:100EE0002795A795F0405395C9F77EF41F16BA0BC6
:100EF000620B730B840BBAF09150A1F0FF0FBB1F74
:100F0000661F771F881FC2F70EC0BA0F621F731FBC
:100F1000841F48F4879577956795B795F7959E3F19
:100F200008F0B0CF9395880F08F09927EE0F9795AA
:100F3000879508950E947D0808F481E008950E9435
:100F4000B3070C94B8080E94B10858F00E94AA0890
:100F500040F029F45F3F29F00C94A10851110C9442
:100F6000EC080C94A7080E94C90868F39923B1F310
:100F7000552391F3951B550BBB27AA2762177307BF
:100F8000840738F09F5F5F4F220F331F441FAA1F53
:100F9000A9F335D00E2E3AF0E0E832D0915050400F
:100FA000E695001CCAF72BD0FE2F29D0660F771FBD
:100FB000881FBB1F261737074807AB07B0E809F0A3
:100FC000BB0B802DBF01FF2793585F4F3AF09E3F28
:100FD000510578F00C94A1080C94EC085F3FE4F301
:100FE000983ED4F3869577956795B795F7959F5F6B
:100FF000C9F7880F911D9695879597F90895E1E0B7
:10100000660F771F881FBB1F621773078407BA0715
:1010100020F0621B730B840BBA0BEE1F88F7E09570
:1010200008950E94D10888F09F5798F0B92F99270A
:10103000B751B0F0E1F0660F771F881F991F1AF0C3
:10104000BA95C9F714C0B13091F00E94EB08B1E035
:1010500008950C94EB08672F782F8827B85F39F034
:10106000B93FCCF3869577956795B395D9F73EF45C
:1010700090958095709561957F4F8F4F9F4F089504
:10108000E89409C097FB3EF4909580957095619522
:101090007F4F8F4F9F4F9923A9F0F92F96E9BB27D8
:1010A0009395F695879577956795B795F111F8CF54
:1010B000FAF4BB0F11F460FF1BC06F5F7F4F8F4FBF
:1010C0009F4F16C0882311F096E911C0772321F0B5
:1010D0009EE8872F762F05C0662371F096E8862F4D
:1010E00070E060E02AF09A95660F771F881FDAF7A4
:1010F000880F9695879597F90895990F0008550FD1
:10110000AA0BE0E8FEEF16161706E807F907C0F08D
:1011100012161306E407F50798F0621B730B840B95
:10112000950B39F40A2661F0232B242B252B21F46F
:1011300008950A2609F4A140A6958FEF811D811D0F
:10114000089597F99F6780E870E060E008959FEF49
:1011500080EC089500240A9416161706180609064E
:10116000089500240A94121613061406050608951D
:10117000092E0394000C11F4882352F0BB0F40F4A5
:10118000BF2B11F460FF04C06F5F7F4F8F4F9F4FE5
:10119000089557FD9058440F551F59F05F3F71F067
:1011A0004795880F97FB991F61F09F3F79F08795CE
:1011B0000895121613061406551FF2CF4695F1DF57
:1011C00008C0161617061806991FF1CF86957105E7
:1011D000610508940895E894BB2766277727CB011B
:1011E00097F908950E947D0808F48FEF08950E94F2
:1011F0000A090C94B8080E94AA0838F00E94B108A5
:1012000020F0952311F00C94A1080C94A708112448
:101210000C94EC080E94C90870F3959FC1F3950FD8
:1012200050E0551F629FF001729FBB27F00DB11D6A
:10123000639FAA27F00DB11DAA1F649F6627B00DFA
:10124000A11D661F829F2227B00DA11D621F739FE3
:10125000B00DA11D621F839FA00D611D221F749FF1
:101260003327A00D611D231F849F600D211D822F38
:10127000762F6A2F11249F5750409AF0F1F088235F
:101280004AF0EE0FFF1FBB1F661F771F881F91508C
:101290005040A9F79E3F510580F00C94A1080C9492
:1012A000EC085F3FE4F3983ED4F386957795679515
:1012B000B795F795E7959F5FC1F7FE2B880F911DB6
:1012C0009695879597F908950E947D08880B990B4C
:1012D000089581E090E0F8940C946E09F894FFCFA3
:1012E0000000000018028101AF016502E001BE01AB
:1012F000D2016E616E00696E66006F7666000D0A3F
:10130000002D2D2D2D2D2D2D2D2D2D2D2D2D2D2D3A
:0C1310002D2D2D2D2D2D2D2D2D3E0000FE
:00000001FF
