:100000000C9462000C948A000C948A000C948A0070
:100010000C948A000C948A000C948A000C948A0038
:100020000C948A000C948A000C948A000C948A0028
:100030000C948A000C948A000C948A000C948A0018
:100040000C9416040C948A000C9486040C9460049E
:100050000C948A000C948A000C948A000C948A00F8
:100060000C948A000C948A000000000024002700F1
:100070002A0000000000250028002B0000000000DE
:1000800023002600290004040404040404040202DA
:100090000202020203030303030301020408102007
:1000A0004080010204081020010204081020000012
:1000B0000008000201000003040700000000000027
:1000C0000000B80411241FBECFEFD8E0DEBFCDBFC3
:1000D00011E0A0E0B1E0E4E6F5E102C005900D9288
:1000E000A038B107D9F722E0A0E8B1E001C01D9225
:1000F000A832B207E1F710E0C2E6D0E004C02197D1
:10010000FE010E946908C136D107C9F70E94EB04BD
:100110000C94B00A0C940000833081F028F48130F4
:1001200099F08230A1F008958730A9F08830B9F0B5
:100130008430D1F4809180008F7D03C08091800055
:100140008F7780938000089584B58F7702C084B53F
:100150008F7D84BD08958091B0008F7703C080911A
:10016000B0008F7D8093B0000895CF93DF93282F48
:1001700030E0F901E255FF4F8491F901E656FF4F57
:10018000D491F901EA57FF4FC491CC2391F081112A
:100190000E948C00EC2FF0E0EE0FFF1FE458FF4FA1
:1001A000A591B491EC91ED2381E090E021F480E001
:1001B00002C080E090E0DF91CF9108951F93CF932C
:1001C000DF93282F30E0F901E255FF4F8491F901C8
:1001D000E656FF4FD491F901EA57FF4FC491CC2363
:1001E000C1F0162F81110E948C00EC2FF0E0EE0F71
:1001F000FF1FEE58FF4FA591B4919FB7F8941111CE
:1002000004C08C91D095D82302C0EC91DE2BDC93F6
:100210009FBFDF91CF911F9108953FB7F8948091D0
:10022000850190918601A0918701B091880126B542
:10023000A89B05C02F3F19F00196A11DB11D3FBF1E
:10024000BA2FA92F982F8827820F911DA11DB11DAC
:10025000BC01CD0142E0660F771F881F991F4A95A8
:10026000D1F708958F929F92AF92BF92CF92DF9273
:10027000EF92FF920F931F93CF93DF93FC0184853E
:10028000811118C080859185A285B385048115816F
:100290002681378180179107A207B30740F4C080F9
:1002A000D180E280F3808C0D9D1DAE1DBF1DBC0171
:1002B000CD0120C0EF010E940D01688779878A87F0
:1002C0009B871C860C811D812E813F8160177107E1
:1002D0008207930778F4C880D980EA80FB804601C2
:1002E0005701801A910AA20AB30A680D791D8A1D66
:1002F0009B1D04C0601B710B820B930BDF91CF9190
:100300001F910F91FF90EF90DF90CF90BF90AF9033
:100310009F908F9008958F929F92AF92BF92CF92AD
:10032000DF92EF92FF926B017C010E940D014B0165
:100330005C01C114D104E104F104F1F00E940D014B
:10034000DC01CB0188199909AA09BB09883E9340B1
:10035000A105B10570F321E0C21AD108E108F10846
:1003600088EE880E83E0981EA11CB11CC114D10434
:10037000E104F10419F7DDCFFF90EF90DF90CF900B
:10038000BF90AF909F908F9008952FB7F894609191
:1003900081017091820180918301909184012FBF2E
:1003A0000895CF92DF92EF92FF920F931F93CF9316
:1003B000DF936C017A018B01C0E0D0E0CE15DF0540
:1003C00081F0D8016D918D01D601ED91FC910190E4
:1003D000F081E02DC6010995892B11F02196EECF11
:1003E0007E01C701DF91CF911F910F91FF90EF9098
:1003F000DF90CF900895089580E090E00895FC018B
:10040000538D448D252F30E0842F90E0821B930B79
:10041000541710F0CF96089501970895FC01918D1F
:10042000828D981761F0828DDF01A80FB11D5D9656
:100430008C91928D9F5F9F73928F90E008958FEFC4
:100440009FEF0895FC01918D828D981731F0828D78
:10045000E80FF11D858D90E008958FEF9FEF0895CF
:10046000FC01918D228D892F90E0805C9F4F821B33
:1004700091098F739927089589E891E00E943002CD
:1004800021E0892B09F420E0822F0895FC01848D5E
:10049000DF01A80FB11DA35ABF4F2C91848D90E0AE
:1004A00001968F739927848FA689B7892C93A08989
:1004B000B1898C91837080648C93938D848D981313
:1004C00006C00288F389E02D80818F7D80830895A6
:1004D000EF92FF920F931F93CF93DF93EC0181E094
:1004E000888F9B8D8C8D981305C0E889F989808150
:1004F00085FD26C0F62E0B8D10E00F5F1F4F0F738A
:100500001127E02E8C8DE8120CC00FB607FCFACF35
:10051000E889F989808185FFF5CFCE010E944602E6
:10052000F1CF8B8DFE01E80FF11DE35AFF4FF082F2
:100530009FB7F8940B8FEA89FB89808180620AC09B
:100540009FB7F894EE89FF896083E889F9898081F3
:100550008370806480839FBF81E090E0DF91CF91C2
:100560001F910F91FF90EF900895CF93DF93EC01CF
:10057000888D8823C9F0EA89FB89808185FD05C0C3
:10058000A889B9898C9186FD0FC00FB607FCF5CFFD
:10059000808185FFF2CFA889B9898C9185FFEDCF45
:1005A000CE010E944602E7CFDF91CF91089580E00F
:1005B00090E0892B29F00E943C0281110C940000EC
:1005C0000895009769F0FC0101900020E9F7319748
:1005D000AF01481B590BBC0189E891E00C94D10193
:1005E00080E090E00895CF93DF930E94E102EC0158
:1005F00082E191E00E94E1028C0F9D1FDF91CF917B
:1006000008958F929F92AF92BF920F931F93CF93B3
:10061000DF93CDB7DEB7A1970FB6F894DEBF0FBE5C
:10062000CDBF19A2423008F44AE08E010F5D1F4F82
:10063000842E912CA12CB12CA50194010E94470875
:10064000E62FB901CA0101501109EA3014F4E05D46
:1006500001C0E95CD801EC93232B242B252B61F7F7
:10066000C8010E94E102A1960FB6F894DEBF0FBE4A
:10067000CDBFDF91CF911F910F91BF90AF909F9011
:100680008F9008958F929F92AF92BF92CF92DF92F8
:10069000EF92FF920F931F93CF93DF936B017C0137
:1006A000142F9B01AC010E94A60A882319F085E152
:1006B00091E027C046015701E894B7F82FEF3FEFCC
:1006C0004FE75FE7C501B4010E94A60A81110DC082
:1006D0002FEF3FEF4FE75FE7C501B4010E94DC0851
:1006E00018161CF489E191E00CC02FEF3FEF4FE7A3
:1006F0005FE4C701B6010E94340A181684F48DE144
:1007000091E0DF91CF911F910F91FF90EF90DF90DB
:10071000CF90BF90AF909F908F900C94E1022FEFFD
:100720003FEF4FE75FECC701B6010E94DC0887FD91
:10073000E6CF20E030E0A901C701B6010E94DC0845
:1007400087FF0BC06DE289E891E00E946802EC012E
:10075000F7FAF094F7F8F09402C0C0E0D0E000E0BF
:1007600060E070E080E09FE3101741F020E030E0AF
:1007700040E251E40E94E1080F5FF6CFA701960125
:100780000E9470086B017C010E9453094B015C01BF
:100790004AE00E940103C80FD91F1123B9F1C50116
:1007A000B4010E9482099B01AC01C701B6010E94FD
:1007B0006F086B017C016EE289E891E00E9468029B
:1007C000C80FD91F20E030E040E251E4C701B60174
:1007D0000E94390A4B015C010E9453096B01E12C14
:1007E000F12C4AE0C701B6010E940103C80FD91FCE
:1007F000C701B6010E9482099B01AC01C501B40189
:100800000E946F086B017C011150E1F6CE01DF916F
:10081000CF911F910F91FF90EF90DF90CF90BF90FD
:10082000AF909F908F9008950E94AB0A1F920F92F5
:100830000FB60F9211242F933F938F939F93AF93F3
:10084000BF938091810190918201A0918301B09129
:1008500084013091800123E0230F2D3720F401968D
:10086000A11DB11D05C026E8230F0296A11DB11DD3
:10087000209380018093810190938201A093830152
:10088000B09384018091850190918601A0918701A8
:10089000B09188010196A11DB11D809385019093AF
:1008A0008601A0938701B0938801BF91AF919F917A
:1008B0008F913F912F910F900FBE0F901F90189521
:1008C0001F920F920FB60F9211242F933F934F93C5
:1008D0005F936F937F938F939F93AF93BF93EF93A8
:1008E000FF9389E891E00E944602FF91EF91BF914A
:1008F000AF919F918F917F916F915F914F913F91B8
:100900002F910F900FBE0F901F9018951F920F926E
:100910000FB60F9211242F938F939F93EF93FF9312
:10092000E0919901F0919A018081E0919F01F0910D
:10093000A00182FD12C090818091A2018F5F8F7310
:100940002091A301821751F0E091A201F0E0E75756
:10095000FE4F958F8093A20101C08081FF91EF919E
:100960009F918F912F910F900FBE0F901F90189510
:10097000E9E8F1E01382128288EE93E0A0E0B0E0B3
:1009800084839583A683B78384E091E091838083F9
:1009900085EC90E09587848784EC90E09787868744
:1009A00080EC90E0918B808B81EC90E0938B828B3C
:1009B00082EC90E0958B848B86EC90E0978B868B15
:1009C000118E128E138E148E8AE090E0909327027F
:1009D000809326020895CF93DF93CDB7DEB7C65438
:1009E000D1090FB6F894DEBF0FBECDBF789484B5A1
:1009F000826084BD84B5816084BD85B5826085BD1B
:100A000085B5816085BD80916E00816080936E00A8
:100A1000109281008091810082608093810080919A
:100A2000810081608093810080918000816080934B
:100A300080008091B10084608093B1008091B0000B
:100A400081608093B00080917A00846080937A0006
:100A500080917A00826080937A0080917A00816030
:100A600080937A0080917A00806880937A00109257
:100A7000C100E0919901F0919A0182E08083E091B8
:100A80009501F09196011082E0919701F091980103
:100A90008FEC80831092A101E0919D01F0919E0165
:100AA00086E08083E0919B01F0919C0180818061D0
:100AB0008083E0919B01F0919C018081886080831C
:100AC000E0919B01F0919C01808180688083E0919E
:100AD0009B01F0919C0180818F7D808360ED77E0A8
:100AE00080E090E00E948B01809126029091270285
:100AF0009927FC01E656FF4F2491FC01EA57FF4F6E
:100B00008491882399F090E0880F991FFC01E8599F
:100B1000FF4FA591B491FC01EE58FF4F8591949140
:100B20008FB7F894EC91E22BEC938FBF60E080914B
:100B300026020E94DE0061E070E080E090E00E940A
:100B40008B0161E0809126020E94DE0080912602E6
:100B5000909127029927FC01E656FF4F2491FC0152
:100B6000EA57FF4F84918823C9F090E0880F991FBE
:100B7000FC01E859FF4FA591B491FC01EE58FF4FDD
:100B8000459154919FB7F8948C91E22FE0958E2374
:100B90008C93DA018C91E823EC939FBF0E94C501EE
:100BA0006B017C01809126020E94B500892B81F0A7
:100BB0000E94C501DC01CB018C199D09AE09BF095A
:100BC00084369105A105B10568F381E291E033C057
:100BD0000E94C5016B017C01809126020E94B50034
:100BE000019781F00E94C501DC01CB018C199D09A0
:100BF000AE09BF0984369105A105B10568F384E308
:100C000091E019C00E94C5016B017C018091260210
:100C10000E94B500892B91F00E94C501DC01CB0137
:100C20008C199D09AE09BF0984369105A105B1054E
:100C300068F389E491E00E94F3027CC08FEF9FEF9C
:100C4000DC018EAB9FABA8AFB9AF1AAE1BAE1CAE2A
:100C50001DAE22961CAE1DAE1EAE1FAE2297239671
:100C60001FAE239789A79AA7ABA7BCA71DA61EA650
:100C70001FA618AA19AA1AAA1BAA1CAA1DAAE12C07
:100C8000F12CB12CAA24A394809126020E94B500D5
:100C90008C01009709F084C0E1E0EE16F10409F43C
:100CA000DEC10E151F0509F0AAC08DA981110BC068
:100CB0000E940D016DA77EA78FA798AB19AA1AAA4B
:100CC0001BAA1CAAADAA8DA98111B8C0C9A8DAA80F
:100CD000EBA8FCA8C114D104E104F10409F49EC0FE
:100CE0008DA59EA5AFA5B8A9C816D906EA06FB062C
:100CF00040F449A55AA56BA57CA5C40ED51EE61ED9
:100D0000F71EC81AD90AEA0AFB0AF4EFCF16F1E077
:100D1000DF06E104F10408F481C08CE591E00E9453
:100D2000F3024AE0C701B6010E94010382E191E0AB
:100D30000E94E10211E000E0412C512C32015301EC
:100D4000420142E0C501B4010E94420382E191E008
:100D50000E94E10242E0C301B2010E94420382E12B
:100D600091E00E94E102602F70E080E090E04AE0B4
:100D70000E94010382E191E00E94E102612F70E094
:100D800080E090E04AE00E94010382E191E00E944D
:100D9000E10285E691E00E94F3020E94D7029ECE16
:100DA000019709F07ECF23968FAD2397811179CFDC
:100DB0000E940D016AAF7BAF8CAF9DAF22961CAE37
:100DC0001DAE1EAE1FAE22972396AFAE239769CFFE
:100DD000673071058105910508F457C141E0603322
:100DE00071058105910508F440E0842F8195E1E0CB
:100DF000F0E0EC0FFD1FE20FF31F8083B394CE01F0
:100E000089960E9432018DA9811108C01DA61EA6D7
:100E10001FA618AA19AA1AAA1BAA1CAA7801B7E227
:100E2000BB1508F031CF7E0141E1E40EF11CF70162
:100E300020E030E060E070E0CB011FC00E940D01B7
:100E40004DA45EA46FA478A8641575058605970562
:100E500068F4C9A4DAA4EBA4FCA4C418D508E60875
:100E6000F708C60ED71EE81EF91E4FCF6B017C0196
:100E7000C418D508E608F70848CF429150E0022E82
:100E800002C0440F551F0A94E2F74A01550FAA0801
:100E9000BB08680D791D8A1D9B1D2F5F3F4F2031B8
:100EA000310559F70E94840920E030E040E251E426
:100EB0000E94E1084B015C01CE01819625969FAF0F
:100EC0008EAF2597FC0140E050E060E070E0CB0180
:100ED000229130E0042E02C0220F331F0A94E2F761
:100EE0002901330F66087708640D751D861D971D4F
:100EF0004F5F5F4F4F30510559F70E94840920E042
:100F000030E040E251E40E94E1082B013C01FE0187
:100F1000399680E090E040E050E0BA01229130E064
:100F2000082E02C0220F331F0A94E2F78901330F03
:100F3000220B330B400F511F621F731F0196883025
:100F4000910561F7DA0180E090E040E050E0BA01FD
:100F5000F70122917F0130E0082E02C0220F331FDB
:100F60000A94E2F78901330F220B330B400F511F14
:100F7000621F731F01968830910551F71A01FE0117
:100F8000799680E090E040E050E0BA01229130E0B4
:100F9000082E02C0220F331F0A94E2F76901330FB3
:100FA000EE08FF084C0D5D1D6E1D7F1D01968830FB
:100FB000910561F727965FAF4EAF279780E090E0ED
:100FC00040E050E0BA012596EEADFFAD25972291A5
:100FD0002596FFAFEEAF259730E0082E02C0220F16
:100FE000331F0A94E2F76901330FEE08FF084C0D36
:100FF0005D1D6E1D7F1D01968830910521F78A01C8
:10100000FE01B99620E030E0C12CD12C760182910E
:1010100090E0022E02C0880F991F0A94E2F7AC01FB
:10102000990F660B770BC40ED51EE61EF71E2F5FB9
:101030003F4F2830310559F7AD01420D531D27961A
:101040008EAD9FAD2797480F591F400F511F61E08C
:101050004C155D0509F060E0062F10E072CECE0160
:10106000C6960E9432012B2D30E06B017C01ACE36F
:10107000CA1AD108E108F108B9E2CB16D104E1049B
:10108000F10408F0A5CE81E0B2CE8FEFB0CEA1E2A0
:101090001A2EAA1BBB1BFD010DC0AA1FBB1FEE1FF2
:1010A000FF1FA217B307E407F50720F0A21BB30B3D
:1010B000E40BF50B661F771F881F991F1A9469F7B9
:1010C00060957095809590959B01AC01BD01CF0115
:1010D0000895EE0FFF1F0590F491E02D09945058EC
:1010E000BB27AA270E9487080C94FA090E94EC09E2
:1010F00038F00E94F30920F039F49F3F19F426F4E8
:101100000C94E9090EF4E095E7FB0C94E309E92F50
:101110000E940B0A58F3BA176207730784079507F2
:1011200020F079F4A6F50C942D0A0EF4E0950B2E20
:10113000BA2FA02D0B01B90190010C01CA01A00129
:101140001124FF27591B99F0593F50F4503E68F184
:101150001A16F040A22F232F342F4427585FF3CFC5
:10116000469537952795A795F0405395C9F77EF496
:101170001F16BA0B620B730B840BBAF09150A1F0DF
:10118000FF0FBB1F661F771F881FC2F70EC0BA0F65
:10119000621F731F841F48F4879577956795B795ED
:1011A000F7959E3F08F0B0CF9395880F08F09927E8
:1011B000EE0F9795879508950E94BF0908F481E086
:1011C00008950E94F5080C94FA090E94F30958F05A
:1011D0000E94EC0940F029F45F3F29F00C94E309E8
:1011E00051110C942E0A0C94E9090E940B0A68F321
:1011F0009923B1F3552391F3951B550BBB27AA27D0
:1012000062177307840738F09F5F5F4F220F331F09
:10121000441FAA1FA9F335D00E2E3AF0E0E832D0D1
:1012200091505040E695001CCAF72BD0FE2F29D0D4
:10123000660F771F881FBB1F261737074807AB07A6
:10124000B0E809F0BB0B802DBF01FF2793585F4F1B
:101250003AF09E3F510578F00C94E3090C942E0A65
:101260005F3FE4F3983ED4F3869577956795B795FD
:10127000F7959F5FC9F7880F911D9695879597F908
:101280000895E1E0660F771F881FBB1F6217730781
:101290008407BA0720F0621B730B840BBA0BEE1F96
:1012A00088F7E09508950E94130A88F09F5798F0F8
:1012B000B92F9927B751B0F0E1F0660F771F881F5B
:1012C000991F1AF0BA95C9F714C0B13091F00E9475
:1012D0002D0AB1E008950C942D0A672F782F8827E6
:1012E000B85F39F0B93FCCF3869577956795B3959C
:1012F000D9F73EF490958095709561957F4F8F4F0B
:101300009F4F0895E89409C097FB3EF4909580950F
:10131000709561957F4F8F4F9F4F9923A9F0F92FBB
:1013200096E9BB279395F695879577956795B79539
:10133000F111F8CFFAF4BB0F11F460FF1BC06F5F1F
:101340007F4F8F4F9F4F16C0882311F096E911C031
:10135000772321F09EE8872F762F05C0662371F052
:1013600096E8862F70E060E02AF09A95660F771F66
:10137000881FDAF7880F9695879597F90895990F42
:101380000008550FAA0BE0E8FEEF16161706E8074F
:10139000F907C0F012161306E407F50798F0621B70
:1013A000730B840B950B39F40A2661F0232B242B45
:1013B000252B21F408950A2609F4A140A6958FEF64
:1013C000811D811D089597F99F6780E870E060E0B6
:1013D00008959FEF80EC089500240A9416161706CE
:1013E00018060906089500240A9412161306140616
:1013F00005060895092E0394000C11F4882352F079
:10140000BB0F40F4BF2B11F460FF04C06F5F7F4F30
:101410008F4F9F4F089557FD9058440F551F59F017
:101420005F3F71F04795880F97FB991F61F09F3FD1
:1014300079F087950895121613061406551FF2CFFA
:101440004695F1DF08C0161617061806991FF1CF4A
:1014500086957105610508940895E894BB27662771
:101460007727CB0197F908950E94BF0908F48FEF01
:1014700008950E944C0A0C94FA090E94EC0938F075
:101480000E94F30920F0952311F00C94E3090C94C9
:10149000E90911240C942E0A0E940B0A70F3959FFF
:1014A000C1F3950F50E0551F629FF001729FBB275B
:1014B000F00DB11D639FAA27F00DB11DAA1F649FF7
:1014C0006627B00DA11D661F829F2227B00DA11DAA
:1014D000621F739FB00DA11D621F839FA00D611D30
:1014E000221F749F3327A00D611D231F849F600D51
:1014F000211D822F762F6A2F11249F5750409AF07A
:10150000F1F088234AF0EE0FFF1FBB1F661F771F05
:10151000881F91505040A9F79E3F510580F00C94D0
:10152000E3090C942E0A5F3FE4F3983ED4F38695CA
:1015300077956795B795F795E7959F5FC1F7FE2B70
:10154000880F911D9695879597F908950E94BF0978
:10155000880B990B089581E090E0F8940C94B00A00
:04156000F894FFCF2D
:10156400000000006802D101FF01B50230020E0242
:1015740022020D0A006E616E00696E66006F766667
:101584000054696D656F7574206669727374206C9C
:101594006F77210054696D656F7574207365636F8F
:1015A4006E642068696768210054696D656F75749D
:1015B400207468697264206C6F77210054494D452A
:1015C4004F55543A002D2D2D2D2D2D2D2D2D2D2DF6
:1015D4002D2D2D2D2D2D2D2D2D2D2D2D2D3E000080
:00000001FF
