:100000000C9462000C948A000C948A000C948A0070
:100010000C948A000C948A000C948A000C948A0038
:100020000C948A000C948A000C948A000C948A0028
:100030000C948A000C948A000C948A000C948A0018
:100040000C949D020C948A000C940D030C94E7020E
:100050000C948A000C948A000C948A000C948A00F8
:100060000C948A000C948A000000000024002700F1
:100070002A000000000023002600290000000000E4
:10008000250028002B0004040404040404040202D4
:100090000202020203030303030301020408102007
:1000A0004080010204081020010204081020000012
:1000B0000008000201000003040700000000000027
:1000C0000000120511241FBECFEFD8E0DEBFCDBF68
:1000D00011E0A0E0B1E0ECEDFAE002C005900D9275
:1000E000A033B107D9F721E0A0E3B1E001C01D9230
:1000F000A73DB207E1F710E0C2E6D0E004C02197C7
:10010000FE010E946105C136D107C9F70E943F0375
:100110000C946C050C940000833081F028F481303D
:1001200099F08230A1F008958730A9F08830B9F0B5
:100130008430D1F4809180008F7D03C08091800055
:100140008F7780938000089584B58F7702C084B53F
:100150008F7D84BD08958091B0008F7703C080911A
:10016000B0008F7D8093B00008951F93CF93DF93ED
:10017000E8EBF0E09491E4EAF0E0D491E0E9F0E01B
:10018000C491CC23D1F0182F992319F0892F0E9404
:100190008C00EC2FF0E0EE0FFF1FE458FF4FA5910D
:1001A000B4919FB7F894111104C08C91D095D823C5
:1001B00002C0EC91DE2BDC939FBFDF91CF911F91AA
:1001C0000895CF93DF93E8EBF0E08491E4EAF0E068
:1001D000D491E0E9F0E0C491CC2391F081110E9428
:1001E0008C00EC2FF0E0EE0FFF1FEE58FF4FA591B3
:1001F000B491EC91ED2381E090E021F480E002C025
:1002000080E090E0DF91CF9108953FB7F89480911E
:10021000360190913701A0913801B091390126B58E
:10022000A89B05C02F3F19F00196A11DB11D3FBF2E
:10023000BA2FA92F982F8827820F911DA11DB11DBC
:10024000BC01CD0142E0660F771F881F991F4A95B8
:10025000D1F70895CF92DF92EF92FF920F931F9301
:10026000CF93DF936C017A018B01C0E0D0E0CE1513
:10027000DF0581F0D8016D918D01D601ED91FC91E2
:100280000190F081E02DC6010995892B11F021968E
:10029000EECF7E01C701DF91CF911F910F91FF90AB
:1002A000EF90DF90CF900895089580E090E008955A
:1002B000FC01538D448D252F30E0842F90E0821B6C
:1002C000930B541710F0CF96089501970895FC01F1
:1002D000918D828D981761F0828DDF01A80FB11D7D
:1002E0005D968C91928D9F5F9F73928F90E00895A1
:1002F0008FEF9FEF0895FC01918D828D981731F05B
:10030000828DE80FF11D858D90E008958FEF9FEFAE
:100310000895FC01918D228D892F90E0805C9F4F84
:10032000821B91098F73992708958AE391E00E94B7
:10033000890121E0892B09F420E0822F0895FC0136
:10034000848DDF01A80FB11DA35ABF4F2C91848D5E
:1003500090E001968F739927848FA689B7892C9393
:10036000A089B1898C91837080648C93938D848DE6
:10037000981306C00288F389E02D80818F7D8083E9
:100380000895EF92FF920F931F93CF93DF93EC01A9
:1003900081E0888F9B8D8C8D981305C0E889F98941
:1003A000808185FD26C0F62E0B8D10E00F5F1F4F5C
:1003B0000F731127E02E8C8DE8120CC00FB607FCCE
:1003C000FACFE889F989808185FFF5CFCE010E94B7
:1003D0009F01F1CF8B8DFE01E80FF11DE35AFF4F16
:1003E000F0829FB7F8940B8FEA89FB898081806245
:1003F0000AC09FB7F894EE89FF896083E889F9897C
:1004000080818370806480839FBF81E090E0DF9172
:10041000CF911F910F91FF90EF900895CF93DF93AD
:10042000EC01888D8823C9F0EA89FB89808185FDEC
:1004300005C0A889B9898C9186FD0FC00FB607FC4D
:10044000F5CF808185FFF2CFA889B9898C9185FF8E
:10045000EDCFCE010E949F01E7CFDF91CF910895AC
:1004600080E090E0892B29F00E94950181110C9485
:1004700000000895009769F0FC0101900020E9F761
:100480003197AF01481B590BBC018AE391E00C94F2
:100490002A0180E090E00895CF93DF930E943A0212
:1004A000EC0182E191E00E943A028C0F9D1FDF91E6
:1004B000CF9108958F929F92AF92BF920F931F9307
:1004C000CF93DF93CDB7DEB7A1970FB6F894DEBF19
:1004D0000FBECDBF19A2423008F44AE08E010F5D75
:1004E0001F4F842E912CA12CB12CA50194010E94A8
:1004F0003F05E62FB901CA0101501109EA3014F491
:10050000E05D01C0E95CD801EC93232B242B252B63
:1005100061F7C8010E943A02A1960FB6F894DEBFB7
:100520000FBECDBFDF91CF911F910F91BF90AF90C4
:100530009F908F9008950E9467051F920F920FB6AB
:100540000F9211242F933F938F939F93AF93BF9359
:100550008091320190913301A0913401B091350125
:100560003091310123E0230F2D3720F40196A11D96
:10057000B11D05C026E8230F0296A11DB11D2093D1
:1005800031018093320190933301A0933401B093F1
:1005900035018091360190913701A0913801B091D9
:1005A00039010196A11DB11D809336019093370149
:1005B000A0933801B0933901BF91AF919F918F9172
:1005C0003F912F910F900FBE0F901F9018951F9283
:1005D0000F920FB60F9211242F933F934F935F9377
:1005E0006F937F938F939F93AF93BF93EF93FF93FB
:1005F0008AE391E00E949F01FF91EF91BF91AF913B
:100600009F918F917F916F915F914F913F912F912A
:100610000F900FBE0F901F9018951F920F920FB65C
:100620000F9211242F938F939F93EF93FF93E09159
:100630004A01F0914B018081E0915001F09151010C
:1006400082FD12C09081809153018F5F8F73209142
:100650005401821751F0E0915301F0E0E65CFE4F47
:10066000958F8093530101C08081FF91EF919F91FD
:100670008F912F910F900FBE0F901F901895CF93D1
:10068000DF93CDB7DEB7C25AD1090FB6F894DEBFFB
:100690000FBECDBF789484B5826084BD84B581607F
:1006A00084BD85B5826085BD85B5816085BD80913D
:1006B0006E00816080936E001092810080918100B5
:1006C00082608093810080918100816080938100AD
:1006D000809180008160809380008091B10084606F
:1006E0008093B1008091B00081608093B0008091D0
:1006F0007A00846080937A0080917A00826080938F
:100700007A0080917A00816080937A0080917A00EB
:10071000806880937A001092C100E0914A01F091C4
:100720004B0182E08083E0914601F0914701108205
:10073000E0914801F09149018FEC808310925201C1
:10074000E0914E01F0914F0186E08083E0914C01F1
:10075000F0914D01808180618083E0914C01F091A6
:100760004D01808188608083E0914C01F0914D01C2
:10077000808180688083E0914C01F0914D018081FF
:100780008F7D8083CE018F559F4FCF55DF4F99834B
:100790008883C15AD040809130018111ECC0E4EAD5
:1007A000F0E02491E0E9F0E08491882399F090E072
:1007B000880F991FFC01E859FF4FA591B491FC01E6
:1007C000E458FF4F859194919FB7F8948C91282B12
:1007D0002C939FBF80E00E94B5000E9405016B0131
:1007E0007C010E940501DC01CB018C199D09AE0939
:1007F000BF09883E9340A105B10598F381E00E94AE
:10080000B500E4EAF0E02491E0E9F0E08491882387
:10081000C1F090E0880F991FFC01E859FF4FA591A6
:10082000B491FC01E458FF4F859194914FB7F8942F
:100830003C91209532233C93DC013C9123232C9363
:100840004FBF0E94E100892BE1F70E94E100019770
:10085000E1F7312C00E010E0C12CD12C76010E9490
:10086000E1005C010E94E1004C01AB28F9F4013089
:10087000110509F083C00E94050164157505860500
:10088000970568F4930182010095109520953095A5
:10089000DC01CB01800F911FA21FB31F78C0DC01C8
:1008A000CB0184199509A609B70971C0019771F4A4
:1008B000332061F0211006C00E9405012B013C018C
:1008C000222423943324339401E010E028E2C2165A
:1008D000D104E104F10418F282E191E00E943A02AD
:1008E00085E191E00E944C028E010F5F1F4F7E0157
:1008F00081E4E80EF11CD8016D917D918D919D915F
:100900008D014AE00E945A020E151F05A1F784E1ED
:1009100091E00E944C028FE191E00E944C028E0116
:100920000F571F4FF70161917191819191917F0153
:100930004AE00E945A020E151F05A1F784E191E0DA
:100940000E944C0285E291E00E944C02D8016D9118
:100950007D918D919D918D014AE00E945A02CF5563
:10096000DF4FE881F981C15AD040E017F10771F7F4
:1009700081E0809330010E9430020DCF8A94892853
:1009800009F498CF3324339400E010E09FCF8C011A
:100990009D010C5311092109310909321105210565
:1009A000310508F10797A109B1099601220F331FFC
:1009B000220F331F8997A105B10528F5E1E0F0E08A
:1009C000EC0FFD1FE20FF31F1082118212821382BF
:1009D000BFEFCB1ADB0AEB0AFB0A8A94892809F4D9
:1009E0006BCF212CCFCFF601EE0FFF1FEE0FFF1FB5
:1009F00081E090E08C0F9D1FE80FF91F81E090E0EF
:100A0000A0E0B0E00AC0E1E0F0E0EC0FFD1FE20F73
:100A1000F31F85E090E0A0E0B0E080839183A283A3
:100A2000B383D6CFEAE3F1E01382128288EE93E03B
:100A3000A0E0B0E084839583A683B78384E091E04F
:100A40009183808385EC90E09587848784EC90E0A7
:100A50009787868780EC90E0918B808B81EC90E08B
:100A6000938B828B82EC90E0958B848B86EC90E06C
:100A7000978B868B118E128E138E148E0895A1E2A1
:100A80001A2EAA1BBB1BFD010DC0AA1FBB1FEE1F08
:100A9000FF1FA217B307E407F50720F0A21BB30B53
:100AA000E40BF50B661F771F881F991F1A9469F7CF
:100AB00060957095809590959B01AC01BD01CF012B
:100AC0000895EE0FFF1F0590F491E02D099481E049
:0C0AD00090E0F8940C946C05F894FFCFB3
:100ADC0000000000C1012A0158010E0289016701C2
:100AEC007B010D0A0048756D69646974793A00548C
:100AFC00656D703A00436865636B73756D3A000001
:00000001FF
